:100000000C946C010C9489010C9489010C94890165
:100010000C9489010C9489010C9489010C94890138
:100020000C9489010C9489010C9489010C94890128
:100030000C9489010C94B0050C9489010C948901ED
:100040000C9489010C9489010C9489010C94890108
:100050000C9489010C9489010C9489010C948901F8
:100060000C9489010C9489015350414345464947FA
:1000700048540047414D454F564552005245414472
:1000800059000207070207050207020500050705D8
:10009000070207020207000000000444040AA0004F
:1000A00004E4E404EC6C08248204ACA6048000049C
:1000B00088840422240A4E4A044E44000048000E5C
:1000C0000000000402444804AAA40262220C248E08
:1000D0000C2C2C0AAE220E8C2C068CA40E2248046A
:1000E000A4A404A62C00404000404802484200E07E
:1000F000E00842480C24040E2EAE04AAEA0CACAC74
:100100000688860CAAAC0E8E8E0E8E88068AA60AEB
:10011000AEAA0E444E06222C08ACAA08888E0AEA23
:10012000AA0AEEEA0EAAAE0CAC8804AAC60CACAAC7
:1001300006842C0E44440AAAAE0AAAA40AAAEA0A11
:10014000A4AA0AA4440E248E0644460A4EE40C4493
:100150004C04A00000000E08400000E2EE008EAE4D
:100160000006860026A6006E860064E400EE2C08D9
:100170008CAA04044404044C088ACA00444600CEF5
:10018000EE000CAA004AA400CAC8006A6200AC884B
:1001900000686C004E4600AAAE00AAA400AAEA00BD
:1001A0000A4A00AA4400E24E0444440648460C426F
:1001B0004C05A0000000000000000000000000004E
:1001C000000000000000000000000000000000002F
:1001D000000000000000000000000000000000001F
:1001E000000000000000000000000000000000000F
:1001F00000000000000000000000000000000000FF
:1002000000000000000000000000000000000000EE
:1002100000000000000000000000000EAE6440007E
:1002200000022E0000840066000F1F1600E2480046
:1002300024C4004A24000E4E004EC4004F54000C4B
:100240004E062626000A1E000E100F15480126A293
:1002500002F9160F222F02F26A04F59204F4F40751
:100260005916047A2400F11F05F5160C0D1E00F234
:100270006904F547095124007D360F2F2C0AA0167A
:100280000F0F2C04465402F22C00600F0F152D02A4
:10029000F6B200112C00AA9908F88700F12C00048E
:1002A000A104F4DD00F1620E0E0E04889F01525885
:1002B0000F4F4704F54400E22F0F1F1F0F0F1E00C2
:1002C000991600AAAB0889AC00F99F00F91E01D16C
:1002D0001E0AA00004A4000011241FBECFEFD4E02A
:1002E000DEBFCDBF11E0A0E0B1E0EEE7F1E102C07A
:1002F00005900D92AA30B107D9F722E0AAE0B1E04B
:1003000001C01D92AC30B207E1F70E9429050C94A0
:10031000BD080C940000CF93DF93009731F0EC01FF
:100320000E94DE0521972097D9F7DF91CF9108959C
:100330002F923F924F925F926F927F928F929F92F5
:10034000AF92BF92CF92DF92EF92FF920F931F93E3
:10035000CF93DF93CDB7DEB7C957D1090FB6F89465
:10036000DEBF0FBECDBF0E942C0665E080E00E947C
:10037000F60688E690E00E94100884EB90E00E9468
:100380008B010E942C0665E08AE00E94F6068CE74D
:1003900090E00E9410088AE590E00E948B01AD96E3
:1003A0001FAEAD97AC961FAEAC9724E1A4962FAFCD
:1003B000A497E0961FAE1EAEE09732E3AB963FAF38
:1003C000AB97CE014396A1969FAF8EAFA197A09613
:1003D0009FADA097E7969FAFE797A196AFADA19786
:1003E000E896AFAFE897FE01F796A396FFAFEEAFA2
:1003F000A397A296FFADA297E996FFAFE997A396C0
:100400002FADA397EA962FAFEA97E1969FAFE197BA
:10041000E296AFAFE297E396FFAFE397E4962FAF94
:10042000E497CE0101967C018E010B5D1F4FE7968C
:10043000EFADE797E896FFADE89720E030E0CF0119
:10044000F7017C01C90166E070E00E949308982FD3
:10045000990F990F890F8E5F8193660F660F6E5FFC
:10046000D7016D937D01D8011D928D012F5F3F4F04
:100470002231310539F7E996EFADE997EA96FFADFC
:10048000EA9720E030E0C90166E070E00E9493083E
:1004900063E070E00E94930861932F5F3F4F283222
:1004A000310589F744244A94BFEFE596BFAFE5973D
:1004B00033243A94EFEFAE96EFAFAE97512C11E0A4
:1004C000212CFFEFE696FFAFE697A5964FAEA597D6
:1004D000412E0E94370881E00E9421060E942C06CE
:1004E0000E944905182F85FF07C0A4962FADA49739
:1004F0002F5FA4962FAFA49714FF07C0A4963FAD1B
:10050000A4973150A4963FAFA497A4968FADA4971B
:10051000823024F492E0A4969FAFA497A496AFAD46
:10052000A497A63224F0B5E2A496BFAFA49701E049
:1005300023E042E850E066E1A4968FADA4970E94C4
:10054000B00733209CF4107CE1F165E070E08CE2B0
:1005500091E00E946A08A496EFADA497AE96EFAF23
:10056000AE970F2EF6E13F2EF02D2BC03A94AE96AB
:10057000FFADAE970F2F112707FD1095632D77273D
:1005800067FD709541E0C8010E94740623E13212B4
:1005900018C0E7E3F0E0EC0FFD1FE00FF11F8081D2
:1005A000882379F067E070E084EF91E00E946A08A8
:1005B000E7E3F0E0EC0FFD1FE00FF11F10823324A2
:1005C0003A942394AB963FADAB97231608F0212CB9
:1005D000E196CFACE197E296DFACE297A6961FAE2C
:1005E000A697E12CF12C10E0AD968FADAD97817000
:1005F000A9968FAFA997AA961FAEAA97AA968EAD75
:100600009FADAA9701964C01880C991C880D991DE5
:10061000DC01AE57BF4FAE96EFADAE97FF27E7FDBB
:10062000F095A896FFAFEEAFA8970F2EFBEA6F2EBE
:10063000F02D752C842C2D01E1E0F0E0EC0FFD1F76
:10064000EE0DFF1D80815601D6016C916F3F09F4BC
:1006500098C01F5FA5E2B0E0AC0FBD1FAE0DBF1D7F
:100660009C90992019F19A949C92969C212D11248A
:100670002695269D912D11249695392F330F930F92
:10068000291B30E02D5F3F4FA901440F551F240F58
:10069000351FA9014E575F4F01E023E00E94B007CC
:1006A00091106FC02FEFF60120836BC0432D5527AB
:1006B00047FD5095461B510967FD53959A015523F7
:1006C00024F422273327241B350B22303105A4F5CF
:1006D000A8964EAD5FADA897481B510987FD53956D
:1006E0009A01552324F422273327241B350B22306B
:1006F000310514F5E0968EAD9FADE0978F30E7E2BF
:100700009E072CF40196E0969FAF8EAFE097AB96D4
:10071000FFADAB97F43020F0F150AB96FFAFAB9745
:100720002FE02C936AE070E08CEB92E00E946A0864
:10073000E6963FACE69725C021101BC0171414F4B1
:10074000670D11C0880D882034F4833024F431E023
:10075000AC963FAFAC97181434F4853224F091E096
:10076000AC969FAFAC97663124F0A1E0A696AFAFF0
:10077000A6978083F501608301E023E0A2010E9437
:10078000B007FFEFEF1AFF0A2FEFC21AD20A32E1C9
:10079000E316F10409F050CF482C572CAC968FADDE
:1007A000AC97211016C0AD969FADAD979F5FAD96EB
:1007B0009FAFAD97811107C017140CF4512CAC9664
:1007C0008FAFAC9706C04194AC961FAEAC97552442
:1007D0005394A596AFADA597AA232CF582E10E946C
:1007E000330590E0E5E2F0E0EC0FFD1FE80FF91FA4
:1007F000208121117AC0E3E1F0E0EC0FFD1FE80F4A
:10080000F91F20812F3F09F470C0E1E0F0E0EC0F08
:10081000FD1FE80FF91FB081E596BFAFE597A596DC
:100820002FAFA59762C020FE07C0A596EFADA59794
:10083000EF5FA596EFAFA597A596FFADA597EF2E15
:10084000FF24E7FCF094E5962FADE597C22EDD245A
:10085000C7FCD09441E0B701C6010E947406A5967A
:100860003FADA59739310CF0D5C086E1E81AF10803
:10087000C701992324F4882799278E199F09029785
:10088000ACF49601A4969FADA497291B310997FD5E
:100890003395C901992324F488279927821B930B48
:1008A000029724F4A1E0A696AFAFA697A596BFAD98
:1008B000A597B331D1F4E7E3F0E0EC0FFD1FEC0DA9
:1008C000FD1D8081882389F067E070E084EF91E06E
:1008D0000E946A08E7E3F0E0EC0FFD1FEC0DFD1D40
:1008E0001082EFEFA596EFAFA597E396CFACE39715
:1008F000E496DFACE497E12CF12CD6018D916D01EB
:10090000882331F041E063E170E0C7010E94740682
:10091000BFEFEB1AFB0AE8E2EE16F10471F760E0B4
:1009200081E00E940D0682E090E00E948B0111118F
:100930000EC0AB96FFADAB97F85FAB96FFAFAB9732
:10094000A6962FADA697222309F46BCD06C0A696D6
:100950003FADA697332309F4BCCD6FE070E088E586
:1009600092E00E946A0880E00E9421060F2EFBE3BD
:10097000EF2EF12CF02D0F2EF3E0CF2ED12CF02DF9
:10098000A4961FADA4970E942C06C701B6010E9431
:100990009308CB01B6010E9493089C012D5F3F4F45
:1009A000A901440F551F240F351FA9014E575F4F52
:1009B00001E023E066E1812F0E94B0070E94370822
:1009C00082E090E00E948B0181E0E81AF108D8F6FD
:1009D0000E942C0661E084E00E94F60683E790E026
:1009E0000E94100868E08AE00E94F606E0968EAD4C
:1009F0009FADE0970E946B0708E710E00E94370860
:100A000082E090E00E948B0101501109011511054F
:100A1000A9F705C0AFEFA596AFAFA59766CFC758AA
:100A2000DF4F0FB6F894DEBF0FBECDBFDF91CF9181
:100A30001F910F91FF90EF90DF90CF90BF90AF90FC
:100A40009F908F907F906F905F904F903F902F90EE
:100A500008950E944C050E94F4050E944205789476
:100A60000E949801FDCF682F90910A01990F9F5F16
:100A700090930A0186B5890F80930A010E9473083A
:100A8000892F08958AB183708AB98BB18C6F8BB925
:100A9000089589B18095089514BC82E085BD0895BC
:100AA00020910B0130910C01C901019690930C012A
:100AB00080930B018F319105A0F48130910539F4B9
:100AC00080EE93E0909389008093880008950A97C0
:100AD00009F045C080E490E09093890080938800FD
:100AE00008952D51310936952795369527953695D8
:100AF0002795283168F08630914088F110920C01DA
:100B000010920B0180910E018F5F80930E0108956A
:100B1000F901E770FF27EF5FFE4F5081269526957C
:100B2000269588E2289FF0011124E95EFE4FA4E893
:100B3000B0E08C91803BE8F3CF01889641E060E023
:100B400030813523242F09F4262F20FD289A20FFF9
:100B500028983196E817F90799F700002898089522
:100B60001F920F920FB60F9211242F933F934F9322
:100B70005F936F937F938F939F93AF93BF93EF9305
:100B8000FF930E9422080E945005FF91EF91BF91B0
:100B9000AF919F918F917F916F915F914F913F9115
:100BA0002F910F900FBE0F901F90189583B7816003
:100BB00083BF889583B78E7F83BF089583B7817F76
:100BC00083BF90910D0180910E01981308C00E947F
:100BD000D60590910D0180910E019817C1F3809177
:100BE0000E0180930D0108951092850010928400EB
:100BF00086EF93E0909387008093860082EC809349
:100C0000800089E180938100EFE6F0E080818160DF
:100C10008083209A219A229A089598E7989FD0017C
:100C20001124A95EBE4F969FF0011124E95EFE4F8C
:100C300080E090E02D912193019688379105D1F7BE
:100C40000895811181E028E7829FC00111249093CB
:100C5000100180930F010895E0910F01F0911001B0
:100C6000E95EFE4F80E090E0119201968837910591
:100C7000D9F710921201109211010895883291054E
:100C800078F56831710570F59B01772314F4295FBD
:100C90003F4F35952795359527953595279548E20A
:100CA000429FF001439FF00D1124E80FF91FE95E08
:100CB000FE4F20910F0130911001E20FF31F67707A
:100CC000772781E090E09C0102C0220F331F6A95D4
:100CD000E2F7B9018081682381E029F480E008957A
:100CE00080E0089580E008958832910508F041C0C1
:100CF00068317105F0F59B0127703327E1E0F0E0E2
:100D000002C0EE0FFF1F2A95E2F79B01772314F430
:100D1000295F3F4F3595279535952795359527952B
:100D200058E2529FB001539F700D1124860F971FF8
:100D300020910F0130911001820F931F413039F43F
:100D4000DC01A95EBE4F2C91E22BEC93089541117A
:100D500008C0DC01A95EBE4FE0952C91E223EC9324
:100D60000895423031F4DC01A95EBE4F2C91E22798
:100D7000EC9308958F929F92AF92BF92CF92DF92A1
:100D8000EF92FF920F931F93CF93DF9300E010E059
:100D9000812C912CA62EB12CC82ED12C14C0B701B9
:100DA000CE018C0D9D1D0E943E06482FB801CE013C
:100DB0000E9474062196C832D10589F70F5F1F4F34
:100DC0000831110531F0C82DD92D7801EA0CFB1C32
:100DD000E6CFDF91CF911F910F91FF90EF90DF90C1
:100DE000CF90BF90AF909F908F9008958093120105
:100DF000609311010895AF92BF92CF92DF92EF926C
:100E0000FF920F931F93CF93DF93B82E8AE0B8160B
:100E100021F080911201853238F0109212018091F8
:100E200011018A5F8093110160911101633138F0E3
:100E3000625180E00E94BA0682E1809311019FE135
:100E40009B1508F03DC0CB2DD0E0A0979E01220F4E
:100E5000331FC20FD31FC956DF4FA0901101D12CF1
:100E60000D2D0A0DFE019491D0FC03C092959F7048
:100E700001C021969F70E92EF09012016894CC2455
:100E8000C2F8CF0C10E0E3FE07C040910001B801AA
:100E90008F2D90E00E947406EE0CF394FC10F3CFBB
:100EA000D394F6E0DF12DCCF809112019FE99B150D
:100EB00020F08C5F8093120103C08B5F809312013E
:100EC000DF91CF911F910F91FF90EF90DF90CF9026
:100ED000BF90AF900895EF92FF920F931F93CF931F
:100EE000DF937C0105E010E0C0E1D7E2C701BE015D
:100EF0000E947F08AB019B01ADECBCEC0E94A708EF
:100F00009C01369527953695279536952795C901E5
:100F1000880F991F220F331F220F331F220F331FF9
:100F2000280F391FCA01821B930B805D0E94FB06AC
:100F30009E01ADECBCEC0E94A708EC01D695C795CC
:100F4000D695C795D695C79501501109011511057C
:100F500069F6DF91CF911F910F91FF90EF90089567
:100F60002F923F924F925F926F927F928F929F92B9
:100F7000AF92BF92CF92DF92EF92FF920F931F93A7
:100F8000CF93DF93522E922F9695891B691B2223B4
:100F9000A1F121E030E0EE24EA94E50CF90102C071
:100FA000EE0FFF1FEA94E2F77F016A01412C212C2A
:100FB000312C662E712C641A750A882E912CF6013C
:100FC0001491C22DD32D5301AC0CBD1C812F90E088
:100FD0008E219F21892B39F0402FB501CE01880D3C
:100FE000991D0E947406110F2196C51578F343943C
:100FF000FFEFCF1ADF0A4510E2CFDF91CF911F91AB
:101000000F91FF90EF90DF90CF90BF90AF909F90A7
:101010008F907F906F905F904F903F902F900895AA
:10102000CF93DF93EC012196FC018491882339F062
:101030000E94FB06FE01849121968111F9CFDF9178
:10104000CF910895E9E0F2E020813181809107029B
:1010500090910802820F931F91838083892F881FAC
:101060008827881F80FD2A9A80FF2A98089540913A
:101070001501509116014115510559F126EF240330
:10108000D001259FB00D112480911301909114017E
:10109000A80FB91F26E83DE30E94B608DC01CB018A
:1010A000072E7BE0B695A795979587957A95D1F70A
:1010B000702D90930802809307024150510950937C
:1010C000160140931501452B21F41092080210924D
:1010D00007020895909314018093130170931601F1
:1010E000609315010895991B79E004C0991F961724
:1010F00008F0961B881F7A95C9F780950895AA1B5A
:10110000BB1B51E107C0AA1FBB1FA617B70710F0F2
:10111000A61BB70B881F991F5A95A9F78095909524
:10112000BC01CD01089597FB072E16F4009407D05B
:1011300077FD09D00E947F0807FC05D03EF490950A
:1011400081959F4F0895709561957F4F0895A29F57
:10115000B001B39FC001A39F700D811D1124911D8B
:10116000B29F700D811D1124911D08950E94A70842
:0E117000B7FF0895821B930B0895F894FFCFEC
:0A117E000101020408102040800067
:00000001FF
